:020000040000FA
:1000000000400020818E0100BD8E0100BF8E0100E6
:1000100000000000000000000000000000000000E0
:10002000000000000000000000000000C18E010080
:100030000000000000000000C38E0100C58E01001A
:10004000C78E0100B1470100C9950100C78E0100AC
:10005000C78E010000000000818F0100C78E0100E3
:10006000BDFD0000359B01003D940100C78E0100DD
:10007000C78E0100C78E0100C78E0100C78E010028
:10008000C78E0100C78E0100C78E0100C78E010018
:10009000C78E0100658A0100318B0100F9FE000066
:1000A00009FF0000C78E01000000000000000000F2
:1000B0000000000000000000000000000000000040
:1000C000054B0648033310B51B1A062B03D9044B06
:1000D000002B00D0984710BD14010020140100200F
:1000E000000000000648074910B5091A8910CB0F17
:1000F0005918491003D0044B002B00D0984710BD6D
:1001000014010020140100200000000010B5074C6D
:100110002378002B09D1FFF7D3FF054B002B02D02A
:10012000044800E000BF0123237010BD200100201F
:1001300000000000D8980300094B10B5002B03D035
:100140000849094800E000BF08480368002B02D1B5
:10015000FFF7C8FF10BD064B002BF9D09847F7E713
:100160000000000024010020D898030014010020A2
:1001700000000000144B002B00D1124B9D46402282
:1001800092029A1A924600218B460F461148124A53
:10019000121A20F0EFFE0D4B002B00D098470C4BAD
:1001A000002B00D098470020002104000D000B48D0
:1001B00020F008FC20F0C2FD2000290029F0B8FC46
:1001C00020F01EFC0000080000400020000000009D
:1001D0000000000018010020E02F0020790C020030
:1001E00010B505F06FFE05491AF044FC0323020028
:1001F00002209A43024B1043C01810BDE02E654206
:100200000000808010B505F05DFE05491AF032FC53
:100210000323020002209A43024B1043C01810BD72
:1002200035FA8E3C0000808010B505F04BFE011CB5
:100230001AF0DCFE024B002800D1024B180010BD62
:10024000D4A10200CCA1020010B505F03BFE440091
:1002500064080849201C1AF0C9FE002805D1054988
:10026000201C19F079FF002801D0034810BD034875
:10027000FCE7C046FFFF7F7FCCA10200D4A10200B3
:1002800010B505F01FFE034B034002201843024B3C
:10029000C01810BDFCFFFF7F0000808010B505F086
:1002A00011FE440064080849201C1AF09FFE002833
:1002B00007D10549201C19F045FF002801D103484A
:1002C00010BD0348FCE7C046FFFF7F7FD4A10200BA
:1002D000CCA102001FB50023019305F0F3FD01A995
:1002E0001CF0ECFF03220300022093430649034362
:1002F0005B180293019B934303435B1802A903938A
:1003000005F0AAFF05B000BD0000808070B50D00AB
:1003100005F0D8FD041C280005F0D4FD1AF07EFE7F
:100320000100201C1CF0A6FF0323020002209A43B8
:10033000014B1043C01870BD000080801FB5002322
:10034000019305F0BFFD01A91CF06AFF03230224FD
:100350009843074B2043C0180290019822F0D1FA2D
:1003600002A90390200005F077FF04B010BDC0463D
:100370000000808070B50D0005F0A4FD041C28006D
:1003800005F0A0FD011C201C1DF068FA03230200EB
:1003900002209A43014B1043C01870BD00008080BA
:1003A00070B50D0005F08EFD041C280005F08AFDD7
:1003B000C00FC3076000400818430323022498437A
:1003C000014B2043C01870BD0000808070B50D0047
:1003D00005F078FD041C280005F074FD011C201CAC
:1003E0001DF0C4F90323020002209A43014B10437D
:1003F000C01870BD0000808010B505F063FD1CF0D2
:1004000019FD0323020002209A43024B1043C01837
:1004100010BDC0460000808010B505F053FD1DF0F2
:1004200051F90323020002209A43024B1043C018E3
:1004300010BDC0460000808010B505F043FD1DF0E2
:10044000EDF80323020002209A43024B1043C01828
:1004500010BDC0460000808010B505F033FD1DF0D2
:1004600041F80323020002209A43024B1043C018B4
:1004700010BDC0460000808010B505F023FD1CF0C3
:10048000F3FF0323020002209A43024B1043C018DB
:1004900010BDC0460000808010B505F013FD1CF0B3
:1004A0002FFE0323020002209A43024B1043C01880
:1004B00010BDC0460000808010B505F003FD1DF0A2
:1004C00059F90323020002209A43024B1043C0183B
:1004D00010BDC0460000808070B50D0005F0F2FC34
:1004E000041C280005F0EEFC011C201C1DF09AFAEB
:1004F0000323020002209A43014B1043C01870BD31
:100500000000808010B505F0DDFC0021041C19F00E
:100510000FFE002802D0074804F01EF9201C1DF031
:1005200015FC0323020002209A43034B1043C0181A
:1005300010BDC046070C03000000808070B50600A7
:1005400008680D0005F0BEFC0021041C19F0FAFD3E
:10055000002802D0184804F0FFF8201C1DF0E6F92E
:10056000041C012E06D1032302209C432043134B7D
:10057000C01870BD686805F0A5FC0021051C19F0C5
:10058000E1FD0028E6D1FE21281C890519F0CAFDED
:10059000002803D00A490B4822F074FF281C1DF0E4
:1005A000C5F9011C201C1AF075F803230200022073
:1005B0009A431043DBE7C046070C0300000080802D
:1005C000F60B0300CCDC020010B50B790349002BBD
:1005D00000D1034922F033FD10BDC046190C0300C1
:1005E0001E0C030037B50C00110000221D00009204
:1005F0000123200005F08AFA002C05D0286805F0B8
:100600003BFD034B002800D1024B18003EBDC04605
:10061000D4A10200CCA1020010B5024922F00FFDC6
:1006200010BDC046240C030070B50500140022F074
:100630002AF8024B2560636070BDC0464F26020059
:1006400010B50C007F2906D8012122F05CF80028A3
:1006500000D0047010BD224B994210D8022122F024
:1006600052F80028F6D04023A2095B4213430370DE
:100670003F232340802464421C434470EAE7194B23
:10068000994214D8032122F03EF80028E2D020231A
:10069000220B5B4213433F2180220370A309524285
:1006A0000B400C401343224343708270D2E7042175
:1006B00022F029F80028CDD01023A20C5B4213436E
:1006C0003F2103708023220B5B420A401A43427091
:1006D000A2090A400C401A431C438270C470B9E757
:1006E000FF070000FFFF000007B5034B00906846BE
:1006F000019302F079FC07BD4F26020010B505F00A
:10070000E1FB04491AF0B6F919F05AFD27F0F2FDA1
:10071000014810BD00007A4418A2020010B505F08F
:100720006DFB002801DD27F0E5FD014810BDC04646
:1007300018A2020010B50400080005F05FFB641069
:100740002018034C400020400124204310BDC04627
:10075000FEFFFF7F10B505F051FB002801DD27F0FB
:10076000C5FD014810BDC04618A2020010B527F013
:10077000D9FD034B400018400123184310BDC0466B
:10078000FEFFFF7F10B527F0C9FD034B4000184066
:100790000123184310BDC046FEFFFF7F10B5102097
:1007A00025F07EFC0400034B08C024F0EDFE200081
:1007B00010BDC04640BD020070B50C00052804D82D
:1007C00019F0D2FA06030C04131C0024200070BD9B
:1007D0008B680E4C002BF9D10D4CF7E7081D25F066
:1007E0004DFB012440000443F0E7FFF7D7FF211D34
:1007F0000500043025F05CF82C00E7E7FFF7CEFF9A
:10080000211D0500043025F063F8F5E7D4A10200AE
:10081000CCA1020070B5050083070CD1104B026813
:100820009A4208D1FFF7BAFF0400291D043025F0D1
:1008300034F8200070BD280005F0E0FAC0231B0644
:10084000984205D180200021C00522F04BF8F1E745
:10085000C2178318012053405B001843EAE7C046E3
:1008600040BD020007B5C30701D540100EBD0430DE
:1008700001A90BF0DFFE002801D00198F6E702493C
:10088000024822F0FFFDC0463E0C0300ECDA0200F5
:100890000123F0B58BB001900D0017000B402AD05A
:1008A0004B10022203A904A824F0ACFE04AEFB07FF
:1008B0002BD57B10022203A904A824F0A3FE04ADCB
:1008C000019B092B01D0162B35D16B68002B5FD013
:1008D000300025F029FB041C280025F025FB011C15
:1008E000201C19F0D7FE032302249843734B2043A6
:1008F000C0180BB0F0BD0320084000D0D6E0704B0C
:100900000A689A42F5D10E1DD1E703231F4205D193
:100910006B4A3968914201D13D1DD1E73B40022B22
:1009200003D1684B3B40062B7BD13A00290001984C
:1009300009F0CCFADDE7019B182B00D98DE0FFF719
:100940002DFF0400019819F00FFA454B3F51510D4E
:10095000141A2075346675454B3F51510D141A20F9
:1009600075346600201D2A00310025F048F820006B
:10097000BFE7201D2A00310025F07BF8F7E7201D96
:100980002A00310025F0B5F9F1E76B68002B03D19F
:100990004D494E4822F076FD07A824F0F5FD2B00C6
:1009A0003200201D07A90BF0DDFC07A824F0F8FD9C
:1009B000DDE76B68002BEBD007A824F0E5FD211DD7
:1009C0002B00320007A8EEE7201D2A00310025F099
:1009D00098F8CCE7201D2A00310025F014F9C6E76D
:1009E000201D2A0031000BF049FCC0E73800FFF75A
:1009F00039FF021E02DA364803F0AEFE019B201DCD
:100A00003100032B01D0102B02D10BF0CBFBAEE752
:100A100024F095FFABE76B68002B49D02B78DB0700
:100A200046D5300025F080FA3A00011C019804F008
:100A300033FC5EE76B68002BAAD0FFF7AFFE070020
:100A4000211D04302B0032000BF08CFC07A9022082
:100A50000797089405F000FC4BE72900300024F0CC
:100A6000F9FE019A0300193A0020042A00D940E750
:100A7000100019F079F90309160D12001548002B22
:100A800000DB36E7144834E71248002BFADC30E785
:100A90001048002B00DD2CE7F4E70E48002BF1DABC
:100AA00027E70C48002B00D023E7EBE7180020E7EE
:100AB000201D2A00310025F09FF958E700008080B2
:100AC00040BD0200070080FFF60B0300CCDC0200F3
:100AD000290C0300CCA10200D4A10200F8B5070044
:100AE00008680C0027F032FD0500606805F0C4FAC4
:100AF0000600022F0AD9A06805F080F90200310033
:100B0000280021F049FF21F0FCFEF8BD004AF6E77D
:100B100040420F00032230B502400121002A04D1D7
:100B2000084C03680D00A3420AD00B0003401D1EB1
:100B300006D1002A04D1036803481B1A5D425D41B7
:100B4000280030BDDCA1020040BD020010B5040049
:100B5000FFF7E0FF012300280AD102332340022BD4
:100B600005D105480440063C601E8441E0B2030004
:100B70000120184010BDC046070080FF044B88606C
:100B80000B60044B08004B600023CB607047C046ED
:100B9000A4D30200B92C020010B505F047F8B02329
:100BA00042689B009A4200D1034B044904480DF06F
:100BB0005FFB0DF09DFAC046130200006B0C0300B2
:100BC00018DC0200F7B504000E00019301208B1819
:100BD0000A0000210093009B934212D82725002988
:100BE00000D0053D224F2A003900200022F0EFFA04
:100BF000009B9E4214D32A003900200022F0E7FA1D
:100C0000F7BD1378272B08D0223B5D426B41DBB246
:100C10000132002BDFD02725E4E700230100F7E7AE
:100C20003278954205D12A001249200022F0CFFAED
:100C30001AE011495C2A14D01F2A09D97F2A15D03D
:100C4000019B002B02D053B2002B07DB3900ECE7ED
:100C50000A490A2A05D00A490D2A02D0092A05D1D3
:100C60000849200022F0EBF90136C1E70649DCE72C
:100C7000A5100300A4100300A8100300AB1003008C
:100C8000AE100300B1100300B4100300194B70B58F
:100C900006000D0098420ED14968A8680CF0E8FBE8
:100CA000041E08D0280021F010FDE00000230624D7
:100CB0002B60204370BD102025F0F2F96968040014
:100CC00081600660A8680CF0B5FB6B686060591C19
:100CD0002B68994209D1AB68E3600023E268A16800
:100CE00020005354AB602B60E4E7A86825F0F6F9C8
:100CF000E060F2E79CA4020070B504000D00002A39
:100D000005D00CF0E7FBC3000620184370BD0CF0C3
:100D1000AFFB0028F7D12A002100024821F0A5FEF0
:100D2000F4E7C0469CA4020010B50A000100024886
:100D300021F09BFE10BDC046ACA20200094B10B5CD
:100D40000340062B01D1C00810BD830708D1064B14
:100D500002689A4204D18168C0680CF0BBFBF3E7DB
:100D6000FFF71AFF070080FF9CA40200064B10B596
:100D70000340062B03D1C00825F0E7FA10BD8368B5
:100D8000C0680B60FAE7C046070080FFF0B50F00AF
:100D9000002589B0110006001C00380000950323CF
:100DA0002A0004F0B3FE0E20AF420FD0012F0FD166
:100DB00002AA102104A8FFF737FC216802A82A0024
:100DC00004F04CFF04A93000FFF760FF09B0F0BD4C
:100DD0002068830722D1164B02689A421ED104A9CB
:100DE000FFF7C4FF134B050020680340062B13D107
:100DF000C00825F09BFA0400002C04D104992800B7
:100E00000CF018FB04001020049F25F049F906603F
:100E10008760C5604460D9E74468EDE704A9012212
:100E200005F0A6F9002205990498FFF765FFCDE7C4
:100E3000ACA20200070080FFF0B58DB00400039162
:100E400004F0F4FE04A906002000FFF78FFF039BC7
:100E500001902F489A0705D11B6883420AD02D4A7A
:100E6000934207D0C36800220293012103AB029C86
:100E7000A0470390002406AA05A9039805F060F88E
:100E80002500059B9C420ED32900002508A821F0CF
:100E90000BFC0A9C059B9D4221D308A93000FFF75B
:100EA000F5FE0DB0F0BD069BA700D85904F0BEFEBC
:100EB000864202D0184803F00FFE002C01D0049B9C
:100EC000ED18069BD859154B0340062B05D1C008D9
:100ED00025F031FA2D180134D3E78068FAE7002DA8
:100EE00006D02000049A01991FF0B2FF049BE41879
:100EF000069AAB00985807A9FFF738FF079A010038
:100F000020001FF0A5FF079B0135E418C2E7C0468B
:100F100068B5020034B30200E1100300070080FF4F
:100F2000F0B58BB0049008680D000692079304F0AA
:100F30007DFE0600686804F079FE864202D068688B
:100F4000FFF72AFE08A92868FFF710FF040009A987
:100F50006868FFF70BFF089A0590A3180393049B9A
:100F60002700022B19D9AB681C498B4206D00121FE
:100F700030000091210001F0D1FB0700049B032BFE
:100F80000BD0EB68154A934207D001222100009252
:100F90003000089A01F0C2FB0390039B059AD91B0D
:100FA000069B38000093099B21F040FD002806D1E4
:100FB000079B0138002B0CD0094803F0CDFB094BEF
:100FC0009E4208D10100200021F0FBFF44000120D7
:100FD00020430BB0F0BD041B6400F8E718A2020028
:100FE000CD1003009CA40200F0B5070087B008688C
:100FF0000D0004F01BFE04A906002868FFF7B6FEEA
:1010000005A904006868FFF7B1FE03902000022FD5
:1010100007D901230093AB68049A2100300001F046
:101020007DFB059A041B049BA418064D9C4205D821
:1010300003991FF0E7FE002800D1034D280007B0F8
:10104000F0BDC046CCA10200D4A1020073B50D00D2
:10105000060069462868FFF789FE01A90400686850
:10106000FFF784FE0100022E02D9084803F062FD5A
:10107000019A0098064D824206D8801A20181FF067
:10108000C1FE002800D1034D280076BDBB1003002F
:10109000CCA10200D4A10200F0B58FB00790106877
:1010A0000C00160004F0C2FD0690012C31D07068CF
:1010B00004F0BCFD069B834202D07068FFF76CFD14
:1010C0000DA97068FFF752FE0D9B089009930DA9BA
:1010D0003068FFF74BFE0D9B0B900493079B012B91
:1010E0001CD1049B5D1E01235B420A930024270050
:1010F000049B03940593059B002B13D1039B002BAA
:1011000023D1214B069A0E209A4200D01F480FB0DF
:10111000F0BD072309931E4B0893D8E70123002550
:101120000A93E3E70B9B09995A1901230898009346
:1011300021F07CFC002816D1039B002B19D1079BC2
:10114000002B09D12F00049B5C1E049B0134E21B81
:10115000934212D13068DAE7079B2C00012B0AD0AA
:1011600001232F0003930A9BED18059B013B059378
:10117000C1E72C00F7E7039FE7E70B9B0698D91917
:1011800021F073FCC3E7C0469CA402009CA20200AD
:101190003A110300F0B589B0049008680D0004F01E
:1011A00045FD0700686804F041FD874202D0686889
:1011B000FFF7F2FC06A92868FFF7D8FD060007A98B
:1011C0006868FFF7D3FD069A0590B3180393049B54
:1011D0003400022B19D9AB681D498B4206D001217E
:1011E00038000091310001F099FA0400049B032BB0
:1011F0000BD0EB68164A934207D0012231000092CF
:101200003800069A01F08AFA0390079B0025002B0C
:1012100012D1039B2000191B21F0E2FE0130450092
:101220000120284309B0F0BD059920001FF0EAFD18
:10123000002808D101353400079A039BA618B34251
:10124000F2D26D00ECE7200021F0B2FE0600F2E7DA
:1012500018A2020010B50100014821F0F7FC10BDF2
:101260000130020010B50100014821F0EFFC10BD73
:1012700013300200F7B50600080001A9FFF776FD5C
:10128000019B0500002B01D11348FEBD134B040048
:101290009E4207D10027019A631B9A4211D8002F62
:1012A00007D1F1E70E4B9E42F4D0019A631B9A429C
:1012B00001D80C48E9E72078B04701340028F4D180
:1012C000E2E7207801F002FB002803D02078B04745
:1012D000071ED9D00134DEE7CCA102003529000079
:1012E0004D290000D4A1020010B501000148FFF70C
:1012F000C1FF10BDB528000010B501000148FFF77F
:10130000B9FF10BDCD28000010B501000148FFF75E
:10131000B1FF10BDE528000010B501000148FFF73E
:10132000A9FF10BD3529000010B501000148FFF7E5
:10133000A1FF10BD4D290000F0B585B006000C00DE
:10134000170004F073FC694605003000FFF70EFD3E
:101350000600042F23D1A30716D1124B22689A420C
:1013600012D101AA210000980BF080F9002802D1C7
:101370000D4803F0DFFB0199029A2800521A7118F8
:1013800021F073FB05B0F0BD002322000099280076
:1013900004F00CFE335C01205B001843F2E70020F0
:1013A000F0E7C046A4B30200C90C030070B51D00ED
:1013B0008EB0002900D174E018683B4C0300234034
:1013C000062B05D0830726D1384B02689A4222D1DA
:1013D0000239012962D80AA9FFF7C8FC060028686B
:1013E0000440062C15D1C00824F0A0FF0400002CF6
:1013F00004D10A9930000CF01DF8040010200A9D59
:1014000024F04EFE2A4B85600360C66044600EB037
:1014100070BD4468EBE7012940D80122104210D08A
:10142000441021000AA821F03FF90C9B0021220062
:10143000180001931FF09EFD0AA91D48FFF726FC26
:10144000E5E703A922F025FA002805D0049A0399BC
:10145000174821F00AFBDAE7286804F0E9FD1021BB
:10146000002800D0411006A821F00DF90AA928682B
:1014700002F042FD0400200002F0A0FD002801D18E
:1014800006A9DAE704F0BAFCFF2802D9094803F0FC
:1014900063F9C1B206A821F056F9ECE7064803F05B
:1014A0001BFB0648B3E7C046070080FF9CA4020070
:1014B000ACA20200960C0300AF0C03009CA2020039
:1014C00073B50400080001A91600FFF74FFC0500E2
:1014D000042E06D10300019A0749200021F077FE6F
:1014E00073BD0649200021F0AAFD0123019A2900BD
:1014F0002000FFF767FBF3E726110300214E0300EE
:10150000F7B502001C4B05000C001A401E00062A0D
:1015100019D10B40062B04D1441A60426041C0B27D
:1015200010E0C00824F002FF07002640062E0CD170
:10153000E00824F0FBFE002F09D0002807D08742E6
:1015400005D00020FEBD4768EFE76068F3E7694615
:101550002800FFF70BFC01A905002000FFF706FC9F
:10156000009A019B01009A42EBD128001FF04AFC2F
:1015700044426041D3E7C046070080FF084B07B5EF
:101580000340062B08D0830704D10268054B9269FB
:101590009A4201D0FFF700FB01A9FFF7E7FB0EBD60
:1015A000070080FF511B00000A4B13B503400C00DD
:1015B000062B08D0830704D10268074B92699A4230
:1015C00001D0FFF7E9FA01A9FFF7D0FB019B2360E7
:1015D00016BDC046070080FF511B0000F0B59BB050
:1015E0000B900C00089210210EAA12A80993FFF785
:1015F0001BF8089B9C4208D30B9A12AB13CB13C267
:101600001B6813600B981BB0F0BD21787D2911D1A8
:10161000631C0693089B621C934208D961787D295C
:1016200005D112A821F08FF8069C0134E1E7B348F8
:1016300003F092F87B2904D012A821F084F80694D4
:10164000F2E7089B651CAB4243D961787B2904D142
:1016500012A821F078F80695E6E72B007D2903D043
:10166000212901D03A291FD100252E001A78212ADC
:1016700023D00022059200211A7806913A2A31D10E
:101680005A1C5B7806927D2B30D0130001220899FA
:101690008B421ED219787B291FD101320133F6E724
:1016A000089A01339A4214D01A787D2A03D0212A4D
:1016B00001D03A2AF4D11E00D8E708995A1C914269
:1016C00009D95A780592723A012A04D8023399420C
:1016D000D1D88B48ACE78B48AAE77D29DED1013A07
:1016E000002ADBD1069A0693079205E0089B069A2A
:1016F0009342EED900230793069B1B787D2B01D0E4
:10170000814895E7002D47D000232878169301F0F3
:10171000E9F82C00002823D0099B1B680A93002BB2
:1017200001DD7A4884E716AA3100280021F066F925
:10173000209A169B013A04009A4203D874497548CE
:1017400021F0A0FE219A01339B009F580122099BA2
:1017500052421A60B4422FD26F4803F0EBF90134C1
:10176000B44204D223782E2B01D05B2BF7D1611B1E
:1017700001222800FFF7C0FA00220500010022988C
:1017800000F0B4FD002805D12900644824F0BFFE14
:101790000CF0AEFC4768DDE7099B1B68002B01DA03
:1017A0005F4845E7209A013A9342C7D20133219915
:1017B0009A005758099A1360079B002B17D1059B75
:1017C000002B00D192E010AA102116A8FEF72CFFE2
:1017D000059A3900733A531E9A4110A8D2B204F008
:1017E0003DFA16A94F48FFF751FA070002E0059BA2
:1017F000002BE8D101235B420D931093079B002B34
:1018000000D1B0E00CF084F9229B069A0293219B50
:1018100007990193209B16A80093099BFFF7DEFE12
:1018200016A820F07EFF0026179B0400C3180A9319
:1018300003780593B34213D03B4D190028001FF0E5
:10184000AFFDB04200D068E16678002E51D0310083
:1018500028001FF0A5FD002800D060E106000590DB
:1018600023782B2B47D000252D2B02D0202B01D104
:10187000043501342378232B02D1133B1D4301345B
:101880002378302B07D1059B002B01D13D330593E5
:10189000002E00D130360DAA0A99200021F0AEF8B2
:1018A000037807902C2B04D10C3B1D43030001331C
:1018B0000793079B1B782E2B06D1079810AA01309F
:1018C0000A9921F09BF80790079B1C78002C07D001
:1018D000210016481FF064FD002800D024E1040018
:1018E000079B1B78002B25D01148A1E67323059395
:1018F00069E70596B4E70225BBE7C046F40D03008F
:10190000350E03001C0E03004D0E0300710E030084
:10191000BB0E03000CD90200D40E030048D902000C
:10192000F10E03009CA402003B0F0300400F0300D4
:10193000500F030016A820F0C8FE059B002B08D10D
:101940003800FFF703F93C230593002801D0023348
:101950000593002E00D1203606231D420BD0732C98
:1019600005D1734864E6079D2C002E00E8E7632C40
:1019700001D170485CE6059B3D2B1FD05E2B1FD02C
:101980003C2B01D13B3B1D433800FFF7C3F8002837
:101990002DD0632C50D026D8472C13D8452C26D2D6
:1019A000002C40D0252C22D0380021F05BFF2200F3
:1019B0000300614961480CF05BFCE9E64023E2E783
:1019C0008023E0E7582C53D0622CEDD10023039301
:1019D0000D9B0222029361230196009539000EA807
:1019E00001F0E4F920E6672C17D8652C1BD33800EA
:1019F000FFF7ACF800286CD0002C56D06E2C54D0D9
:101A0000472C3FD8452C41D2252C50D0380021F00E
:101A100029FF220003004A49CCE76F2C1AD0782C0A
:101A200026D06E2CC0D1002303930D9B0196029308
:101A3000009561230A22D1E7380004F0DFF90D9BFD
:101A400016A90870012201932B0000960EA801F040
:101A500051F9E9E5EB0602D580239B001D430023E5
:101A600003930D9B01960293009561230822B5E72D
:101A70000022230003920D9A173B029201960095D3
:101A80001022ABE72300653B022BBFD8380004F0DF
:101A900019FA109B220002930D9B011C01932B004D
:101AA00000960EA821F04EFBBEE56724EEE7380055
:101AB000802404F007FA234918F0DCFF109B64002F
:101AC00002930D9B2C430193011C00962300662278
:101AD000E7E7059B3D2B01D11B48A9E5002C01D070
:101AE000732C13D116A93800FFF75EFD109B01007F
:101AF000169A002B00DA1092109B9A4200D9169386
:101B00000D9B00960193169A2B009FE7380021F059
:101B1000A9FE220003000D494CE70134A0E6330082
:101B20000234059E05939BE6079B01330793D7E696
:101B3000690F0300950F0300C80F030090DC02003B
:101B4000F90F03000000C8422D10030062100300CB
:101B5000F0B5A1B005000C000D920A2800D0E6E116
:101B60000DAB0F930123073D1093059215403DD116
:101B70001368C04A934206D10FAA10A9059821F014
:101B8000C1FE059502E0BC4A9342FAD1109B11A90F
:101B900007930F9B20000893FFF7E8F800230990B4
:101BA0000B93A30706D1B54A23689B1A59425941A2
:101BB000CBB20B9314AA102118A8FEF735FD119A89
:101BC00000279446099B099C63440493049BA34209
:101BD0000FD8079BAA48BB4229D10B9BA748002BD3
:101BE00000D1A84818A9FFF751F8BBE100230593DD
:101BF000CCE72178252904D018A820F0A4FD0134D1
:101C0000E4E7049B661CB34202D89F4802F0A4FD9F
:101C10006178252904D118A820F095FD3400EEE75D
:101C20000025282915D1059BAB4202D1974802F027
:101C300053FFA01C06003378292B1DD1311A012235
:101C4000FFF75AF80100059808F086FB0127050008
:101C500001360023340040220026302104200A935C
:101C600020330693049BA34219D923782D2B0AD144
:101C70002C3B1E430134F5E7049BB34201D8844852
:101C8000C4E70136D7E72B2B01D1293BF1E7202B05
:101C900001D10643EEE7232B4AD0302B45D0002359
:101CA0001293049BA34246D801235B421393049BE7
:101CB000A342AAD923782E2B16D1049B601C834201
:101CC000A3D963782A2B50D1079BBB4239D97B1CFF
:101CD0000C93089BBF00F85804F090F80C9F1390E9
:101CE0000234049BA34290D9002D06D1079BBB422E
:101CF00027D9089ABB009D5801372278672A5ED8F9
:101D0000652A00D3D2E0582A76D036D81300453B56
:101D1000022B00D8CAE0099B5E49E41A0094130024
:101D20005D480CF0A5FA0CF0E3F916430691A1E723
:101D300010230A939EE723782A2B0FD1079BBB42DF
:101D400001D8564873E77B1C0C93089BBF00F858DA
:101D500004F054F8013412900C9FA5E7200012AA59
:101D6000049920F04BFE04009EE7002313AA049977
:101D7000139320F043FE0400B3E7632A49D0642A9A
:101D8000C9D103222B001340022B0AD1444B2B4014
:101D9000062B06D0FF23DB05E818904307F040FF31
:101DA0000500139B0A220393129B00960293069B45
:101DB00001936123290014A800F0F8FF1FE7732A9C
:101DC00016D8722A00D381E0692ADAD06F2AA2D10C
:101DD0000A9B002B02D084239B001E43139B00967A
:101DE0000393129B08220293069B01936123E1E770
:101DF000752AC6D0782A8ED11300139A173B039206
:101E0000129A0292069A01920A9A1643009610229A
:101E1000D0E7234B2B40062B05D0AB0716D1194B2F
:101E20002A689A4212D11CA92800FFF7BDFB1C9A10
:101E30000100012A01D01B48F9E6129B01932023DF
:101E40000093330014A800F055FFD8E62800FEF7F1
:101E500061FE00280BD0280003F0D0FF129B1CA9C4
:101E6000087001932023012200933300EAE70E4813
:101E7000DDE6C04634B302004CBF0200ACA2020053
:101E8000BF0D03009CA40200FA0C03000C0D03001C
:101E9000230D03008A0D030090DC0200390D0300BE
:101EA000070080FF600D0300790D0300280004F097
:101EB00009F8139B22780293129B011C0193069B45
:101EC00014A80093330021F03DF998E616AA1021DA
:101ED0001CA8FEF7A9FB23781A00723A5042504121
:101EE000C2B2722B09D00B9B002B06D0AB0704D1DA
:101EF000594B2968994200D10422290016A803F001
:101F0000ADFE139A1D9B002A00DA1393139A9A428E
:101F100000D91A00129B1E990193202314A8009344
:101F2000330000F0E7FE1CA820F0CFFB67E60800B6
:101F300003F07CFE16A907002000FEF717FF0590AE
:101F4000072D22D118A90D9803F096FF0300002059
:101F5000834207D01899814206DC404B0E309F42E5
:101F600000D03F4821B0F0BD169B1CA8594320F07B
:101F70009BFB1E9B0121049300930598189B169AC6
:101F800024F0C1F81CA938002DE60D9803F04EFE90
:101F900087420FD11CA90D98FEF7E8FE1C9E049005
:101FA0001D2D18D8192D4FD2052D22D0122D20D03D
:101FB0000020D7E7284B9F420AD101221CA90D9887
:101FC00021F067FC0028CDD01C9B1D9E0493E7E701
:101FD0000D98FEF7E1FD1F2DEAD10123049A00932D
:101FE00016993300059820F021FD00282AD01D48BD
:101FF000B8E7169B002B07D10D9803F017FE874218
:1020000002D10D9C2000ADE7002EFBD0169B1CA832
:10201000F11820F049FB1E9B169A059918000693AB
:102020001EF016FF169A1E9B9446059363441800F3
:10203000320004991EF00CFF1CA93800FEF726FEA2
:102040000400DFE708488DE70096049B169A05997F
:10205000280024F08EF8C8E7ACA202009CA402007D
:102060009CA20200D4A10200CCA10200F0B50500A0
:1020700087B008680C0003F0D9FD0090012D2AD923
:102080006668022D28D0A06803F0B8FE0500002184
:10209000080021F05CFE04A901902068FEF766FEAE
:1020A000049B0400C7183D4B9E423FD1BC422CD23A
:1020B000207800F0FFFB002811D1BC4225D2002D72
:1020C0000FD121003A1B009820F0CFFC01000198AD
:1020D00005F060FC19E0314E01256D42D7E701346F
:1020E000E4E72600307800F0E5FB002802D1013655
:1020F000B742F7D12100321B009820F0B6FC010056
:10210000019805F047FCB74202D8019807B0F0BD2E
:102110003400207800F0CEFB002802D00134A74222
:10212000F7D1EB175B1BDB0FED1AC6E7300003F0AE
:102130007DFD009B834202D03000FEF72DFD05A9F6
:102140003000FFF731FA059B0390002B14D114489F
:1021500002F002FB3E002100321B009820F085FCBB
:102160000100019805F016FCBE42CED2059BF41882
:10217000EB175B1BDB0FED1A2600059B0293002D6E
:10218000E8D0029BF3189F42E4D3029A03993000EF
:102190001EF038FE0028DED00136F0E718A202005B
:1021A00094100300F0B507008BB00D00022805D88D
:1021B00029003800FFF75AFF0BB0F0BD086803F0A4
:1021C00035FD08A9049028686E68FEF7CFFD0190E0
:1021D000A86803F013FE041EEADB431C180000216C
:1021E000059321F0B4FD2F4B05009E4202D12E48ED
:1021F00002F0A0FC09A93000FFF7D6F9099B069070
:10220000002B02D1294802F0A7FA089A019B9446B4
:1022100063440293A3000393099F029BDE1B002CDF
:102220000BD0019BB34208D83A00069930001EF04B
:10223000E9FD002822D0013EF1E7EB68A6009F19D6
:10224000019A029B01999A1A049820F00EFC3860BA
:10225000002C11D0059B1C1BEB68A70099193A00B4
:1022600018001EF037FE6B6800211A1BEB68920005
:10227000D8191EF07FFEAC6028009DE7039AEB683A
:10228000944663440793029BF1199A1BD21B04984E
:1022900020F0EBFB079B013C1860039B0296043B7C
:1022A0000393B9E718A202002B1103009410030056
:1022B00070B50C008AB0050004A920681600FEF76E
:1022C00055FD00230593049B0100C218029605AB3F
:1022D00006A801940095FFF781F906A90248FEF7C8
:1022E000D5FC0AB070BDC0469CA40200F0B587B012
:1022F0000092027804000F00930703D5009B002B87
:1023000000D0F5E0D307DB0F0ED07A4B3B40062B15
:1023100043D003233B4003D177493868884203D038
:10232000009B012B00D0E3E0019353075FD52368A6
:10233000A568DE08F600AE19B54230D3009B012B2C
:1023400000D0D5E02368D9086368994210D10431E0
:102350006160A068C90023F0C1FE23686268DB08E1
:10236000D21ADB00A060D200C01800211EF002FECD
:1023700007212368DD086A1CD2000B401343236049
:10238000A368ED005D195B4B2F601F40062F21D025
:1023900001222378934323701CE00123C4E72868BB
:1023A00087421AD1009B022B14D129002368721B8B
:1023B000D210083B013A6F6828002360D200083130
:1023C0001EF088FD2368DD08A368ED005D19002379
:1023D0006F602B60280007B0F0BD019B002B04D17B
:1023E000390003F0B9FC0028DCD10835A4E76368A4
:1023F000002B05D1009B012B7AD1200000F07EF844
:102400003C4B3B400593062B27D1F80823F08EFF69
:1024100003906168039817F04BFD00260491049B1C
:102420000293029BDD00A3685D19286800281BD178
:10243000009B012B5CD107212368DA080132D2000E
:102440000B4013432360002E00D0350000236B6047
:10245000059B2F60062B9BD1BCE73900022001F0C1
:10246000E3FB43100393D4E704281DD1002E00D1D1
:102470002E0002986168013017F01AFD049B02914A
:102480008B42CED1009B012B32D1002E2CD0236861
:1024900035000833236000237360059B3760062BEB
:1024A00098D02378009A75E7874212D1009B022BBF
:1024B00000D08FE723680298083B236001306168F1
:1024C00017F0F6FCA368C900CB58002B0AD12B608B
:1024D00080E7019B002BCCD1390003F03DFC0028A4
:1024E000C7D0E3E70423F2E7200000F007F890E705
:1024F00000256FE7070080FF9CA40200F7B5436842
:10250000040001935A1C002317495D5AAA4206D9B8
:102510000233442BF9D15508AD18433B1D43E80065
:10252000A76823F0CFFD07232268656013400122CE
:102530003D000026236013432370A060019B9E4250
:1025400003D1380023F0DBFDF7BD2968002907D04F
:10255000042905D001222000FFF7C8FE6B68436004
:1025600001360835EAE7C046B8060300F8B50500AD
:1025700000230768866812497A1C585A824206D995
:102580000233442BF9D15008821801201043002453
:1025900028606C60800023F095FDA860BC4203D1E8
:1025A000300023F0ACFDF8BDA300F158002905D0A0
:1025B000042903D00122280020F0DAFB0134EDE7E2
:1025C000B8060300044B88600B60044B08004B60A6
:1025D0000023CB607047C046A4D302009B2E0200AC
:1025E00013B50400080001A9FEF7C0FB002C03D0BE
:1025F000012C07D0002004E0019B0548002B00D1EE
:10260000044816BD019920F0EBFC40002043F8E798
:10261000D4A10200CCA10200F0B585B004000800EE
:1026200003A91500FEF7A2FB0600002D07D1030049
:10263000039A2F49200020F0CAFD05B0F0BD039B8E
:102640000200C318002101200193019B934206D888
:102650002727002900D0053F3A0026491AE01378C1
:10266000272B08D0223B5D426B41DBB20132002BAD
:10267000EBD02727F0E700230100F7E7300020F038
:102680007CFC0500300020F093FC0600AF4205D131
:102690003A001949200020F09AFD14E017495C2DFA
:1026A0000ED02B00203B5E2B01D82A00D5E7144921
:1026B0000A2D05D013490D2D02D0092D0CD1124938
:1026C000200020F0BCFC019BB342D7D83A00094956
:1026D000200020F07CFDB0E7FF2D02D82A000B4936
:1026E000D8E70B4B2A000B499D42D3D90A49D1E7C1
:1026F00026110300A5100300A4100300A810030076
:10270000AB100300AE100300B1100300B4100300BF
:10271000FFFF0000831103008A110300F7B51F00BB
:1027200008AB1D782A4B0C001600984207D12B00ED
:102730003A00310003F03AFC24182000FEBDFB07EC
:1027400014D57F100197019BA219002B2BDA0020D2
:102750003F260127013A94421AD9002800D001935C
:10276000002DEAD11B491C4820F08CFE01A938003D
:1027700003F082FB0028E6D1380021F073F81749F6
:10278000020017480BF074FD0BF0B2FC0A00E2E700
:102790001178B143802901D038000133511E002B3C
:1027A000F4D11400C9E700213F260120944204D34C
:1027B000002900D001931400D2E7002BBDD00134D2
:1027C0002178B1438029FAD0013B0100EEE7C046F1
:1027D000ACA20200691103000CD9020041110300F0
:1027E00018DC0200F0B587B006000D00170003F0FA
:1027F0001DFA02A904003000FEF7B8FA0600042F03
:102800004FD1AB0736D1284B2A689A4232D105AB5B
:1028100004AA03A9280021F016F9059B234FBB4207
:1028200004D0032B02D0224802F084F9039B350028
:10283000BB4207D00122310000922000029AFFF72C
:102840006DFF0500049BBB4211D0012231000092B4
:102850002000029AFFF762FF06000E20B54204D85E
:10286000721B2900200020F000F907B0F0BD029B88
:10287000F618F2E70023029A009331002B002000A3
:10288000FFF74CFF0278012153B2002B02DA4023FC
:102890001A4203D10122FEF72FFAE6E701315B0865
:1028A000F6E70020E1E7C046A4B3020018A2020048
:1028B000C90C030000237F2803D8034B1B5C9B0734
:1028C000DB0F18007047C0469111030000237F28DA
:1028D00003D8034B1B5C1B07DB0F18007047C04677
:1028E0009111030000237F2803D8034B1B5C5B0777
:1028F000DB0F18007047C0469111030000237F28AA
:1029000003D8034B1B5C5B06DB0F18007047C04607
:102910009111030000227F2808D8054B0132195C71
:102920000C23194202D15F384242424110007047E5
:102930009111030000237F2803D8034B1B5CDB06A7
:10294000DB0F18007047C0469111030000237F2859
:1029500003D8034B1B5C9B06DB0F18007047C04677
:102960009111030010B50400002906D0044B8A6BB6
:102970000360096800230BF0E9FC20000BF0B8FBB2
:10298000A0DB0200F0B587B0039202934618002A3C
:1029900002D0023A222A27D80400B4422ED220784C
:1029A000FFF788FF071E22D123782B2B21D101347A
:1029B000311B200003AA23F028FC23181C0000254B
:1029C0000193B4421CD3002F00D06D4201236D004F
:1029D0001D43019B9C4234D12649039A26480BF0A3
:1029E00047FC0299FFF7BEFF244801F0B5FE013411
:1029F000D3E72D2BDCD101340127D9E70027D7E716
:102A000023781A00303A0092092A07D9202213436A
:102A10001A00613A192AD6D8573B00930399009BB4
:102A20008B42D0D228000CF0A9FB002816D1039BC2
:102A30005D43009BED186B006B400FD40134C0E781
:102A40000134B44205D22078FFF734FF0028F7D1D3
:102A5000C2E7B442C0D1280007B0F0BD019B3A00E4
:102A60000593F11A05A8039B1FF071FF059C050053
:102A7000AFE7C0466B12030090DC0200481203006F
:102A8000F0B504008BB0069209934718BC4255D2AA
:102A90002078FFF70FFF0190002837D123782B2BE8
:102AA00036D1019B01340493BC4200D3D1E02023F2
:102AB00022781A43692A32D1A21C974200D8E5E055
:102AC00062781A436E2A00D0E0E0A2781A43662AA0
:102AD00000D0DBE0E21DE61C974214D9E2781A43ED
:102AE000692A10D122791A436E2A0CD162791A43CD
:102AF000692A08D1A2791A43742A04D1E2791343CE
:102B0000792B00D10536FF25ED052BE00134BDE71B
:102B1000019A04922D2BCAD101342C3BC3E76E2AB3
:102B200010D008940026614B3500079300230196CE
:102B30000293BC4220D30023069376E0002308943E
:102B40000493EFE7A21C974200D89FE062781A43F3
:102B5000612A00D09AE0A27813436E2B00D095E052
:102B6000534DE61C049B002B02D080231B06ED185E
:102B7000B44274D14F4983E0631C039323781A0055
:102B8000303A0592092A27D8022D04D10A235E4340
:102B9000B618039CCDE7012D10D1059818F0AEFAB8
:102BA000079917F067FF011C029817F0E1FB3F49F6
:102BB0000290079817F05EFF0790EAE73E490298F7
:102BC00017F058FF041C059818F098FA211C17F00C
:102BD000CFFB00250290DCE7002D03D12E2B03D183
:102BE0000125D6E7022D18D020221A43652A14D1D8
:102BF000039B9F4204D963782B2B06D1A31C03931C
:102C0000039BBB42B6D00225C3E702252D2BC0D1C2
:102C10006319039301230193F2E7069A002A04D073
:102C2000202213436A2B86D1039C019B002B00D0EA
:102C30007642300018F012FA011C1F481AF0F2FE1A
:102C4000029917F017FF069B2600051C0193089CAC
:102C500088E700230894002602936CE70136BE4201
:102C600005D23078FFF726FE0028F7D182E7BE4272
:102C700080D1099B002B02D1019B002B0DD00F4965
:102C80000F4823F04BFC1099FFF76CFE049B002BC0
:102C900000D16FE72600002567E7032302209D434C
:102CA000084B2843C0180BB0F0BDC046CDCCCC3D7E
:102CB0000000C07F2E12030000002041111203000B
:102CC00090DC02000000808010B50400431C02D09C
:102CD00002480BF02BFB024B1C6010BDA42E002001
:102CE000782E0020014A024B9A647047A42E0020DF
:102CF0007C2E0020F0B587B0039205910D9A0399C0
:102D00000500521A0CA9097820200C00844339D000
:102D100030293BD00CA902910121802401911C4053
:102D200036D0D40FA4186410171B002C37DD2600F2
:102D3000019B0493B34200DD04966B68049A0299E8
:102D400028689847049BF61A002EF1DC039B002BA1
:102D500006D01A0005996B6828689847039BE41809
:102D6000002F0CDDE419019EBE4200DD3E00320062
:102D7000029928686B689847BF1B002FF3DC20007E
:102D800007B0F0BD074902911021C6E70649FAE7EE
:102D900001271F4001D11400C7E71700D6E7002420
:102DA000D4E7C046A5120300B6120300F0B593B0F5
:102DB000069318AB20CB04901B780F0016000793E6
:102DC000CB070BD48B0703D1854B0A689A4205D0F9
:102DD000380003F013F801274000074381231D4208
:102DE00009D1079B302B06D11A9B1B9A934200DA1C
:102DF0001A9200231B9338001FF05FFD0AAA1300EC
:102E0000002806DBAB070FD52B231370123B04AA57
:102E10009B18EA0616D5022E0DD130221A70069A9A
:102E200001325A7002330DE013006A07F1D52022F7
:102E30001A701923EBE7082E3CD130221A70AA052C
:102E400035D4013300220AA91A705B1A0593AB0628
:102E500000D52C320EAB0B93102300210C931B9B3F
:102E60000D91012B01DD40231D4304ABD9756B4649
:102E700040241B7E2C400392029322D03B00019100
:102E800000960DAA0CA90BA806F07EFF0378070098
:102E90002D2B2DD104AAD3750D9B1B9A013B013715
:102EA0000D93012A00DD95E0002634004AE0069AE1
:102EB0000E32B6E7102EC5D130221A70069A17329C
:102EC000AFE70AAB019300963B000DAA0CA90BA833
:102ED00006F05AFF1B9B07002600012B32DD0D9BDD
:102EE0001B9C9C4215DA1C0013E00026340019E0FC
:102EF0001B9B012BD8DD0D9B1B9C9C4200DA1C0008
:102F0000172304AA9B181B78002B00D00134059BC3
:102F1000E4181A9BA342E8DD01261C1B2E4001D0B9
:102F20002600002401239D432F330793002C09D052
:102F3000103B0093002301941A002A490498FFF7DC
:102F4000D9FE04006B0621D5172104ABC9180B78F4
:102F5000002B0AD000230122009301920498FFF76E
:102F6000C9FE1A9B2418013B1A93059B002B0DD018
:102F7000012301930023059A00930AA90498FFF7FF
:102F8000B9FE1A9B059A24189B1A1A931B9B012BB6
:102F900000DD1A931A9B0D9A0193079B3900009349
:102FA00004982B00FFF7A6FE2418002E09D020233A
:102FB0000093002301961A000A490498FFF79AFE2D
:102FC00024180B980EAB984201D023F098F82000FB
:102FD00013B0F0BD1B9C9C4298DA1C0096E7C046DB
:102FE00040BD0200EE3D0300F0B5060014000027CE
:102FF0008DB00D002B78002B1ED1A94208D26B1A80
:1030000004931A003068736898472900049BFF18DE
:103010000B78002B00D13EE14B1C049320230025AC
:103020003022082104200893049B1B78002B07D131
:103030000693013B079355E0252BDED00135D9E7F8
:103040002D2B05D12C3B1D43049B01330493EBE74F
:103050002B2B01D1293BF6E7202B01D10543F3E7C8
:10306000212B01D10D43EFE7302B23D000230A2180
:103070000693049B1B781A00303A092A1ED92E2B7E
:1030800050D1049A049B527801332A2A1FD004930A
:1030900000230A210793049B1B781A00303A092A5F
:1030A00020D8079A4A43D318303B0793049B013337
:1030B0000493F0E7402308921D43C5E7069A4A436C
:1030C000D318303B0693049B01330493D1E7049B50
:1030D00002330493236804340793DB43079ADB1716
:1030E0001A400792049B1B786C3B59425941049B40
:1030F0005B1804931B780593002B00D1CBE0642B65
:1031000000D1A1E022D8502B29D00ED8453B022B6C
:1031100000D8A9E001220499306873689847013704
:10312000099452E001235B4284E7059B622B3CD06B
:1031300057D8582BEED1231D0993069B0195039375
:10314000089B029341230093313B7BE0059B712B4D
:1031500053D00FD8672B00D886E0702BDAD1231D0F
:103160000993069B01950393089B029361230093A7
:10317000513B67E0059B752B5AD0782BEFD0732B12
:10318000C8D1231D24680993002C49D0079B013323
:1031900003D120001EF0B6F90790069B079A019311
:1031A000089B210000932B000BE0231D099323684B
:1031B000002B0ED0069B04220193089B37490093F5
:1031C0002B003000FFF796FD3F180499099C013150
:1031D0000FE7069B05220193089B314900932B00C2
:1031E000EFE7231D099323680BA90B70069B0122AF
:1031F0000193089B00932B00E3E7231D0BA9206894
:10320000099323F0A2F8079B0100013301D10B9B26
:103210000793069B079A0193089B00932B00D0E726
:10322000069B06220193089B1E4900932B00C8E7CA
:10323000231D0993069B01950393089B0293612329
:103240000093573B00220AE0231D0993069B0122AD
:103250000393089B0195029361230093573B2168D8
:1032600030001FF0FBFEAFE7072307349C43230029
:10327000206861680833099319F028FD079B011C39
:103280000293069B059A0193089B300000932B0044
:103290001FF058FF98E738000DB0F0BD93120300FF
:1032A000981203009E120300F7B545681600A8683F
:1032B0001F00019120F08FF80400A86820F091F819
:1032C00020F089F8030003205843073400198000D8
:1032D00022F0E6FE074B040003606B683200436097
:1032E00000238560C36001993B00083000F06AFA52
:1032F0002000FEBD14A6020070B5050088680C0011
:1033000021F0B6FB23000200024928001FF05FFFF6
:1033100070BDC046E712030010B5024823F0F1F873
:103320000AF0E6FE64DB020010B50400082022F07B
:10333000B7FE024B4460036010BDC04650A60200B9
:10334000F7B5C56804001E00002D02D11D602800DD
:10335000FEBD03691830834205D1184B994203D052
:10336000174801F0B9FB19602000164F11007B6867
:103370000830019363687B600BF05EF8019B0500E9
:103380007B60012807D002280CD00023E36023696A
:103390001B683360DBE723691B683360002BD6D1E1
:1033A000E360D4E7A368986820F015F8002305309F
:1033B0008000E36024186368EBE7C04618A20200AF
:1033C000051303007C2E002013B501ABFFF7B8FFF7
:1033D00001280ED0104C02280DD0019BA34219D019
:1033E000002B17D001AA01210C4823F084F80AF021
:1033F0007FFE019816BD019802F018FC074908F0FD
:1034000033FD002801D10198F1E701980AF0FCFE94
:10341000A042F8D10020EDE718A2020064DB020010
:1034200010B50B00022808D14A6805491868FFF753
:10343000CBFF002803D1FFF76FFF8A68F5E710BDC7
:1034400018A2020010B500220149FFF7BDFF10BD10
:1034500018A2020013B5114C01AB114A2100FFF76D
:103460006FFF012803D0022805D0200016BD0D49AA
:103470000D4820F007F8019802F0D8FB0B4908F03E
:10348000F3FC0028F1D1019802F0D0FB084908F0C4
:10349000EBFC0028E9D101980AF02AFE18A20200EC
:1034A000D0D60200C712030028DB020058D8020061
:1034B00064DB0200F0B50D00002785B01100039019
:1034C0001E002800104B0222009702F01FFBA81CD0
:1034D000800022F0E5FD039B040003606B1E3D00AD
:1034E0000393436033688360039B9D4202D32000B3
:1034F00005B0F0BD0135AF00F059002100F0FCFC33
:10350000E719B860F0E7C046FFFF0000F0B505001E
:103510008BB008680C00FEF731F8049004A81FF087
:103520008CFE00270126049B03900693069B1978C6
:1035300000291BD1380002F08FFE0122009007A95C
:10354000606802F015FE079B089A05939B1801928C
:103550000293022D1FD9A06802F050FC002817DA50
:10356000089BC01814D52B4801F0F6F80800FFF7A7
:10357000B9F9002806D006A81FF071FE069B1B783B
:10358000732B00D13000069B3F1801330693CDE723
:10359000059B181805900024BC4202D300980BB07C
:1035A000F0BD049B01251878FFF79CF9002803D093
:1035B00004A81FF054FE05000598029A43199A4288
:1035C000D1D3049B1B78732B09D0009BA6009E19B6
:1035D0000195019B0436002B10D164190AE02900E3
:1035E000FDF7A2FB059B009A5D19A31C9B000595A6
:1035F00001349850049B01330493CDE7049B05AA42
:103600001978039803F0AAF9019B7060013B0193BC
:10361000DFE7C0463B130300F0B589B00391019288
:103620001E00FDF7ABFF049004A81FF006FE002467
:103630000290B44201D309B0F0BD049B1878002871
:10364000F9D0FFF74FF90125002803D004A81FF097
:1036500006FE0500039B019A5B199A4202D21B48A1
:1036600001F07AF8049B1B78732B10D064190E9B21
:10367000A700DF19002D25D0049BAA00524219781B
:10368000BA5803AB029803F0C9F9013DF2E70E9B6B
:10369000671CA400E058012205A902F069FD069C00
:1036A000AC4200D92C002200059903981DF0D0FBF4
:1036B000039B2A1B18193C0000211DF05BFC039B97
:1036C0005D190395049B01330493B2E73B13030098
:1036D000F0B50E0089B0039001CE0F001FF0D5FDAC
:1036E0004410210004A81EF0DFFF069D22000021E7
:1036F00028001DF03FFC039B0096013B2A1929007E
:103700003868FFF789FF04A90248FDF7BFFA09B03E
:10371000F0BDC046ACA2020030B50C0089B0050077
:103720000222606805A902F023FDA06802F066FB92
:10373000002806DA069B0393C01802D5084801F05A
:103740000BF80599069AEB1E8A18091820000C3010
:1037500000902068FFF760FF024809B030BDC04606
:103760003B13030018A20200F7B5019111490400B0
:10377000170000251FF063FC7B689D4204D30E49AF
:1037800020001FF05CFCF7BD002D03D00B4920008A
:103790001FF055FC019BAE009A5909492000BE1943
:1037A0001FF015FD0122B168200002F057FA013523
:1037B000E2E7C046971C0300A31A03004C13030062
:1037C0004F130300F0B58FB00692426809939446F8
:1037D0000368040003939B68043000936344036010
:1037E0000E001FF0E8FD059060681FF0FAFD431C15
:1037F00063600378A34A0193831C636043780021CC
:103800000093C31C63608378B5000493031D636059
:10381000C3782000029323001033A360059B14306B
:103820009A1893000793C318E360079B0C331A00A0
:1038300008931DF09FFB099B009A5B190B93059B56
:103840009B1A049A0A939D1A2F1D009ABF00E7192C
:103850000123B24268D2019A1A4207D13300009A7A
:1038600089498A480AF004FD0AF042FC009B0335AE
:103870009900099BAD005918009B6519F01A02F0D8
:10388000EBFC009E043F68600022964200D075E089
:10389000069B002B03D1019B1B0700D4D7E002231A
:1038A0000026019A1A400992B24204D0069821F0EB
:1038B00076F9060038600027039B0B9DDB680893B0
:1038C000069B9F4263D10A9D029A05350399AD007C
:1038D0000332631992008A181900029E002E00D04C
:1038E00082E0029A92009B18079A2032A218934213
:1038F00000D282E00827009B089A9B00143DD31851
:1039000065190693049B9E4200D280E065680DA86D
:103910000D951FF050FD28180578461CFF2D00D08E
:10392000A4E066600FB0F0BD019A1A4205D00335DD
:10393000AD00574B6519043F6B60069B002BA3D16C
:10394000019B1B07A0D4009B029A9A1A964213D39C
:10395000009A029B991A32008900009B9A4200D378
:1039600092E79300039D58182818089D0069EB1AE8
:10397000E31818610132F0E7330071E709990898FC
:103980009300C958C31AE318196101327DE7009BFF
:10399000049800221B189C462968624505D3099BA0
:1039A000002B1CD1CA083B490EE0089B9000185818
:1039B000814212D1059B013B9B1A9B00E3185A6977
:1039C000002A05D0CA08344930480AF051FC4BE7B8
:1039D0006A685A610137083572E70132DDE76A68C3
:1039E000300021F014F9F5E70868002801D11068CB
:1039F0000860013E0431043A70E7191D1B68002B72
:103A000003D1521A92102549DEE70B006FE72A69AD
:103A1000002A11D1019B3B4211D002990398043135
:103A2000890008580699B3000430C958FEF75EFCB7
:103A3000002804D043682B610136043D62E7009BF7
:103A40001749F618089BB600F258D208BCE7049B49
:103A5000002B02D0134801F03FF8019B9B0700D4D4
:103A600054E7049821F09BF838604FE7ED43059B3D
:103A7000ED18AD006519686908F0F4FE6861300062
:103A80004AE7C046FDFFFF3F5313030018DC020066
:103A90002CB30200BB1303008C130300DC130300E0
:103AA0000E1403003E14030070B509F0D5FC0F4C52
:103AB0000F4B0025A3620F4BE585636323000321B1
:103AC000A8330D481D60A564A585256306F056FC46
:103AD0000A4E0121300006F051FC3000084A094925
:103AE00021F095F826606660E56570BD7C2E0020AB
:103AF00084D902002CB30200B42E0020C82E00206E
:103B0000760F0000860F000070B50624134EC30028
:103B10001C437368002205002100181DFEF7E6FB18
:103B2000021E18D1F06D002807D004302100FEF7E6
:103B3000DDFB002801D0406870BD0022210008484C
:103B4000FEF7D4FB021E06D12A00064906480AF0F9
:103B50008FFB0AF0CDFA5068EEE7C0467C2E0020BD
:103B600038B802006615030038DA02000A4B10B5B7
:103B7000040018685B6898420AD00621E3001943E4
:103B800004300022FEF7B2FB002801D0406810BDCF
:103B90002000FFF7B9FFFAE77C2E0020074B10B595
:103BA000D86D002801D1064810BD04300022054917
:103BB000FEF79CFB0028F6D04068F5E77C2E00203D
:103BC00000B70200DE0E00000A00C100062010B59A
:103BD000024B0143186821F01AF810BD7C2E00201A
:103BE000062110B5034BC0000143186821F019F8F5
:103BF00010BDC0467C2E00200A00C100062010B572
:103C0000024B0143586821F002F810BD7C2E0020C1
:103C1000062110B5034BC0000143586821F001F89C
:103C200010BDC0467C2E002037B505000C000628CC
:103C300006D1080002F020FA00280DD02C483EBD25
:103C4000CB071BD54B10042816D816F08DF803159A
:103C50004E4E0700002BF1D02648F0E7C022120696
:103C6000934204D18020C0051EF04BFEE7E75B4283
:103C70005B0001201843E2E7DB43F9E702281AD191
:103C80001D4B0B40062B08D08B0714D10A681B4B29
:103C900092699A420FD1486802E0C80822F046FBB8
:103CA000002806D101A92000FDF760F8019909F06C
:103CB000C1FB4300DDE7200001F0B8FF4369002BA2
:103CC0000DD10F4BAD002000ED581FF0CBFD2A00A9
:103CD00003000C490C480AF0CBFA0AF009FA21005B
:103CE000280098470028AAD1EBE70800A7E7C046BC
:103CF000CCA10200D4A10200070080FF511B0000EC
:103D0000C8C40200F215030018DC0200F7B5040075
:103D1000019116001F0001F089FF0569002D09D1EE
:103D200020001FF09FFD0649020006480AF0A0FA95
:103D30000AF0DEF93B00320001992000A847FEBDE1
:103D4000F914030018DC0200F8B50E0015001C0081
:103D5000930714D113681E4A934202D16B68236003
:103D6000F8BD1C4A934207D1002802D001F05EFF43
:103D700006006B6848C4F3E7174A934201D12560F7
:103D8000EEE75A68022117008F4314498F4202D090
:103D900013498A42F3D1002817D1124A93420BD01B
:103DA000114A934208D0114A934205D0104A9342D7
:103DB00002D0104A934208D10C2022F071F90E4B28
:103DC0004660036085602060CAE725606060C7E7E1
:103DD00014C40200D8C302008CC4020045020000D3
:103DE0001A02000098BB0200D4BB020010BC020003
:103DF0004CBC020088BC020080A70200F8B500237A
:103E00001360536006000D00140001F00FFFF9234A
:103E100007005B009D4205D1836A002B02D00F4B47
:103E200048C4F8BDFB69002B04D0220029003000F3
:103E30009847F6E7B86B0028F3D00621ED00294338
:103E400004301A00FEF752FA0028EAD04268230034
:103E500039003000FFF778FFE3E7C046C8B702003B
:103E600070B5160004000D00FFF7C8FF3368002B83
:103E700015D10B4EA3070BD10A4B22689A4207D1EA
:103E80002B006268084930000AF0F2F90AF030F9B4
:103E900020001FF0E7FC2B0002000449F3E770BD8F
:103EA00068D702008CC402007F150300A61503002A
:103EB00073B504000D00160001F0B8FEC369002BB5
:103EC00009D004220196009229006A4620009847F2
:103ED000009B002B0AD020001FF0C4FC2B00020026
:103EE000034904480AF0C4F90AF002F973BDC04658
:103EF000A615030068D7020073B504000D0001F099
:103F000095FE174B426A06009A4226D0002D03D137
:103F1000102022F0C5F80500736A002B12D1E621AB
:103F20006A46FF312000FFF769FF009B002B0FD18D
:103F300020001FF097FC0B4902000B480AF098F98B
:103F40000AF0D6F82900200098470028E7D076BD6F
:103F50002900684601F0F8F8F9E72000F7E7C046C5
:103F6000913802001515030018DC020037B5040073
:103F700001F05CFE856A002D02D02000A8473EBDFE
:103F8000F9216A4649002000FFF738FF009B002B0B
:103F900005D06A46290028001FF038FAEFE7200014
:103FA0001FF060FC0349020003480AF061F90AF0BF
:103FB0009FF8C0464715030018DC020030B5050025
:103FC0008FB009F0A5FD280001F030FE846A002CB6
:103FD00005D02800A047040020000FB030BDF92113
:103FE0006A4649002800FFF709FF009B002B16D006
:103FF00002A80AF057F8002807D16A4601001FF00E
:1040000005FA04000AF06CF8E6E7039B0849186813
:1040100007F02AFF0028DFD103980AF069F828008A
:104020001FF020FC0349020003480AF021F9F4E7DD
:1040300064DB02004715030018DC0200F0B51368CA
:104040008FB00793002800D073E00400131D039382
:10405000FF220B00090A1340114001934B00069305
:10406000069A019B05919B18039A9B00D2580492D3
:10407000039AD3185F68381E09D00020BB0706D109
:10408000954B3A689A4202D1380020F0BDFD059B5D
:104090001E18049B002B51D1019B76000133F318AD
:1040A0009800009321F0FCFF26000500002C01D0B1
:1040B00001260460019BB0009A00281803991CF0A7
:1040C000C7FE019B9B190293029B9800059B281831
:1040D000DA00019B9900039B59181CF0B9FE029A63
:1040E000069B944663440193002F12D003243C4066
:1040F00000D0ABE0784B3A689A4200D0A6E0380096
:1041000020F09AFD03230600009373689C4200D2BE
:104110007FE0019B029A02999A1A52082B00079895
:10412000FFF7F4FD0400280021F0E9FF20000FB0A4
:10413000F0BD130008330393546889E7049B9B0781
:1041400030D1049B654A1B68934202D0644A934273
:1041500028D10AAA09A9049801F0F2FE099B019A44
:1041600001339B1876009B199800009321F098FF6B
:1041700026000500002C01D001260460019BB00040
:104180009A00039928181CF063FE019B0A9998195C
:10419000099B80009A0028181CF05AFE019B099A7E
:1041A0009B188FE7019B7600181D33189800009329
:1041B00021F076FF26000500002C01D001260460C6
:1041C000019BB0009A00039928181CF041FE019B46
:1041D0000AA99B1904980293FFF78EFE029B049094
:1041E0009C000498FFF7EAFE061E00D16CE7009BD6
:1041F000029A934207D8D900280021F06FFF0500EA
:10420000009B5B000093029B2E5101330293043408
:10421000E7E7B368E700D859002815D0042813D081
:10422000009B184205D12F4B02689A4201D11EF023
:1042300056FD019B019A9B00E85002320192B26840
:10424000EB18D7197A685A6001345EE70AAA264942
:104250003800FFF705FE00210AAA08001FF0D6F873
:104260000021FFF749FE019B03909E000398FFF792
:10427000A5FE041E00D14CE7019B009A01339A422F
:104280000BD853000093042B01D204230093009B0E
:104290002800990021F022FF050003231C4207D1CA
:1042A000104B22689A4203D120001EF018FD040032
:1042B000E6210AAAFF313800FFF7D2FD0AAA002141
:1042C00001200C941FF0A2F8019BAC510233019322
:1042D000AB1958600836C9E74CBF020034B302007E
:1042E00068B502009CA402006B02000070B50C00CF
:1042F00086B0150083071AD103681F4A934202D083
:104300001E4A934213D102AA01A901F019FE019B92
:104310009C422AD819D3029BA4001C19043B043CDC
:104320009C4201D106B070BD226804C5F7E702A91E
:10433000FFF7E2FD002306000193019B3000A3423A
:1043400006D3FFF73BFE0028ECD022000C490EE01C
:10435000FFF734FE002808D0019A0A49A31A5B1817
:104360009B00013258510192E7E7019A064907483C
:1043700009F07EFF09F0BCFE34B3020068B502000C
:1043800033160300FFFFFF3F1016030090DC02000E
:10439000F7B5FF240E00090A264015000C408307DC
:1043A00031D10368384A934202D0384A93422AD125
:1043B00001AA694601F0C4FD009B32199A425BD8FC
:1043C0009A009446002001998200A0420FD19B1BC5
:1043D000B4000919181AAD181FF0B9FC019B286028
:1043E0001C19002301360133B34207D1F7BD6746DC
:1043F000BF1A043FCF590130AF50E5E79A00514250
:104400006158A950EFE70021FFF776FD0023070070
:104410000093009B9E4217D8002108001FF097FCD4
:1044200006003800FFF7CAFD011E1AD1B1688C42A0
:1044300022D8A300EB181E6088009D4215D1091BED
:1044400030001FF0A0FCD1E73800FFF7B7FD0028CF
:1044500012D0009AB31A1B199B00013258510092D6
:10446000D7E7300003F096FADBE7F268C71AAA181C
:10447000D259043B1A60E0E7009A0549054809F063
:10448000F7FE09F035FEC04634B3020068B50200FD
:104490001016030090DC0200F0B591B01D0006007C
:1044A0000C00170001F0C2FB334B984207D12B00E0
:1044B0003A0021003000FEF743FF11B0F0BD826AE0
:1044C0002E4B002A08D09C4230D130009047286003
:1044D0000028F2D00120F0E79C4227D1F92101AA5F
:1044E00049003000FFF78AFC019B002B0DD1D7213A
:1044F00001AA49003000FFF7B3FC039401AA002190
:1045000001201EF083FF2860E4E704A809F0CAFD3B
:10451000002807D101AA01001EF078FF286009F0E9
:10452000DFFDD7E7059B2B600220C6E7002CDED11C
:10453000380001F07BFB124907F096FC01AA002825
:104540000ED010493000FFF759FC019B002B10D012
:1045500001AA210020001EF059FF28602000ACE7CE
:1045600009493000FFF74AFC019B002B01D003975B
:10457000C4E72F60D8E7C04614A6020018A20200C4
:1045800058D8020019020000CD02000010B5040046
:1045900009F0B4FE002808D0002320001A001900FA
:1045A000FFF7B4FB0400200010BD200021F0BAFF8B
:1045B0000028F8D10249034821F0B0FFF2E7C046D5
:1045C000C815030018DC02007FB5C300062018439D
:1045D000054B01900491052001A9029303930592D4
:1045E00006F0B2FB07B000BD18A202001423F0B51C
:1045F0008DB000AFFA1805000C00FFF7FFFBBB6998
:10460000002B06D022002C492C4809F031FE09F07D
:104610006FFD786900284CD1280020F0E1FB0028CC
:10462000F0D01423F821FA1828004900FFF7E6FB20
:1046300010237869F918FCF7B7FFB860200021F063
:104640007AFE6A463E69B968731C7B60C318FB60DA
:104650000E33DB08DB00D31A9D46320068461CF09F
:10466000F7FB6D462E23AB557B682000EB18BB6033
:1046700021F066FE0600200021F05DFE3100020000
:10468000B8681CF0E5FBF968684608F023FFC30032
:10469000062018430A4B10223B627B62094BBA1872
:1046A000BB620123FB620B33F861D118052006F0D1
:1046B0004BFBBD460DB0F0BD3115030094D8020090
:1046C00018A20200D4A10200F0B5174C0F006168D7
:1046D00095B003912168060008A8049162602360E8
:1046E00009F0E0FC051E06D0039B09986360049B5B
:1046F000236009F0FDFC33683A00310005A80193FE
:104700000BF090F82B002A00019905A80DF0B6FDDA
:104710001EF06DFE050009F0E3FC2800039B6360BA
:10472000049B236015B0F0BD7C2E002010B5040062
:1047300008F082F9031E054802D005491EF0A2FECA
:104740002200044909F094FD09F0D2FCFCD90200D2
:104750007D140300A6140300010010B501481EF0EB
:1047600091FEC04690DC0200F0B589B003900F00C6
:104770001600202803D191420FD0B048ABE0039B34
:104780001B2B01D01E2B0DD13100380001F0E4FAB3
:10479000039B002803D01B2BEFD1A9489BE01B2BC8
:1047A000FBD1EAE7039B212B28D1100009F0A6FDDD
:1047B000002806D03100380021F0BAFE0028ECD1E4
:1047C000DBE70324344000D05CE19E4B32689A4220
:1047D00000D057E173689C42CFD2A300F3189D68C4
:1047E000280009F08BFD002800D14AE1290038009B
:1047F00021F09EFE0028D0D10134EBE701231942BD
:1048000000D1FBE013404D100293002B00D1EDE0EE
:10481000039B54101D2B00D934E1180015F0B8FA91
:104820001E0028002A002D0045004C004F005100BA
:104830005D0066007C008400B9001E0028002A008C
:104840002D0045004C004F0051005D0066007C00CB
:104850008400D200D6003201DA00DE002543029542
:10486000029B5C00634000D5BCE00120204332E0A5
:104870006540F4E72C400294F2E7002C02DA72481B
:10488000FFF76AFF1F2C08DC704B23419D4204DCBC
:10489000C0231B0623419D4205DAE91728001EF0BC
:1048A00021F807004CE0A540D9E7002CE7DB1F2CDE
:1048B00000DD1F242541D2E72B190293D0E72B1BE3
:1048C000FBE7210028000AF059FC0028E5D101206F
:1048D00065436D00284309B0F0BD002C00D1E4E031
:1048E0002100280021F044FE0290B9E7002C00D1FD
:1048F000DBE0280016F0B2FB051C200016F0AEFB32
:10490000011C281C15F0C6FE0323050002209D4350
:104910004F4B2843C018DEE7002C00D1C5E0210032
:10492000280021F015FEDFE72F00002C2EDA2800EA
:1049300016F094FB032302279843454B0743FF18C7
:10494000380001F073F98369002B00D19AE032003E
:104950003900039898470028BDD193E001231C42F9
:1049600008D0390002980AF009FC002895D1029B72
:104970007B430293012C00D172E7390038006410A8
:104980000AF0FCFB002800D087E77F43002CE5D12C
:1049900066E7002C00D188E00021022001F05CFCD9
:1049A00021000600280021F0E3FD012740003843E4
:1049B000B0602100280021F0CBFDB8400743F7602C
:1049C000300088E7A54200DAE7E6D6E6A54200DD3A
:1049D000E3E6D2E6A54200DCDFE6CEE6A54200DB58
:1049E000DBE6CAE602981DF08CFF74E70323134050
:1049F000022B03D1174B1340062B5AD1039B1F2BBD
:104A00009ED1300001F012F983690400002B0CD113
:104A1000636A002B24D130001EF024FF0E490200EF
:104A20000E4809F025FC09F063FB3A0031000398B9
:104A30009847002800D04EE7EAE7C046CCA1020024
:104A4000D4A1020034B30200290C0300FFFFFF3F92
:104A500000008080070080FF1515030018DC0200AD
:104A600004A93000FFF748FA04002000FFF7A6FA77
:104A7000002800D181E6390001F06EF90028F4D059
:104A80008BE62E00039B38009A000E4BD4581EF084
:104A9000E9FE050030001EF0E5FE2B00009022002C
:104AA00009490A4809F0E4FBBDE7094909481EF035
:104AB000E9FC280016F0D2FA3200011C039800F03D
:104AC000EBFB48E740C30200D414030018DC0200EB
:104AD000F60B0300CCDC0200010010B501481EF00B
:104AE000D1FCC04618DC0200F8B504000D00170028
:104AF0001E00002908D0186801F098F863689842F1
:104B000002D00548FFF7E8FF33003A002900A0680B
:104B1000FFF7FCF8F8BDC046651403000121400012
:104B2000014310B5024821F0F2FC09F0E1FAC04659
:104B3000B0DA0200010010B501481EF0A3FCC04627
:104B400074DA0200002803D0012807D0002004E016
:104B50008B680448002B00D1034870478B685B00CA
:104B60001843FAE7D4A10200CCA10200034B48602D
:104B70000B60002308008B60CB607047CCA702005D
:104B80007FB504000122080001A901F0F1FA00221A
:104B90002179402001F058FE01000500029815F02F
:104BA00001F9636806001A0A904217D9A368C11870
:104BB0006943E06821F092FA2379E0602A00A06856
:104BC00063606843E3687243181801991CF040F968
:104BD000A36805489E19A66004B070BD121A12029F
:104BE000DBB21343EAE7C04618A20200F7B5FF277D
:104BF000456804000191BD431DD101792A00402080
:104C000001F022FE636806003B408027A1683F0157
:104C10001F43083141436760E06821F05FFA636831
:104C2000E0601A0AA368013A013372435E43290027
:104C300080191CF09FF92079019BA268E16801F0BE
:104C400067FFA36803480133A3606368013BFF3B30
:104C50006360FEBD18A20200F8B5002207000D0037
:104C60000100402001F0F0FD0600102021F018FAAC
:104C7000074B0400012F00D0064B28002360FBB235
:104C8000A5607043636021F00BFAE0602000F8BD7E
:104C900064A8020028A8020070B506008AB00C00C3
:104CA000150012285CD003D8052826D0002454E033
:104CB0001B2800D16CE01F28F8D1012207A9280089
:104CC0001EF0E7FD032300284FD01C4213D13B4BBD
:104CD00022689A420FD1012204A920001EF0DCFBB9
:104CE0000123079A00930599089B04981DF09EFEE6
:104CF000334C002831D1334C2FE0012204A920008D
:104D00001EF0CAFB2800012207A901F031FA069B18
:104D1000002203936B464020197B01F095FD0100B2
:104D20000600089815F03EF8069BA16803936B46B1
:104D300041180500187BFFF78FFF059B04001A0040
:104D40000499C06803931CF083F82A000598E3686F
:104D50007243181807991CF07BF820000AB070BD48
:104D600011002000FFF70CFFF7E7EA070DD41D4202
:104D700003D1154B2A689A4207D003232B40022BFC
:104D8000B9D1124B1D40062DB5D01148FFF7D2FE08
:104D9000012204A920001EF07FFB012207A92800A0
:104DA0001EF077FD0028A6D0089B059A0093049971
:104DB000079B300021F0DDF99AE7C04664A80200A5
:104DC000D4A10200CCA1020040BD0200070080FF78
:104DD000EE3D0300F0B5050087B00E00012808D0B5
:104DE0008B0726D10B68264A934202D0254A93426C
:104DF0001FD1012203A930001EF04BFD002818D05E
:104E000000222900402001F01FFD01000700049846
:104E100014F0C8FF060001002800FFF71DFF320054
:104E200004007A430399C0681CF012F8200007B010
:104E3000F0BD300001F0FCF8071E00D0471039002B
:104E40002800FFF709FF002104003000FFF754F8A5
:104E5000002600900098FFF7B1F8031EE6D0002F5F
:104E600004D119002000FFF7C1FEF3E7721C019284
:104E7000E1683200280001F04BFE019EEAE7C046DF
:104E8000ACA2020064A8020070B50E7904000D0007
:104E9000012E0DD119491EF0D2F83300AA68E96835
:104EA0002000FBF78FFE164920001EF0C8F870BDE9
:104EB000320014491EF08BF9AB68002BF3D0124975
:104EC00020001EF0BCF80026AB689E4204D30F49B8
:104ED00020001EF0B4F8E6E7002E03D00C492000B5
:104EE0001EF0ADF83200E968287901F0D5FC012206
:104EF0000100200000F0B2FE0136E5E75B1603007A
:104F0000A31A03006716030072160300B02F0300F4
:104F10004C13030070B5050086B0161E44D0032460
:104F20000C402DD1214B0A689A4229D103AA8068EE
:104F300007F09CFB002802D11D48FFF7FBFD200075
:104F4000042E1BD122002979402001F07DFC049B16
:104F500006000093039B28790193019A009B991AFC
:104F6000FFF77AFE04000399049AC068521A71434D
:104F70007243EE6871181BF06BFF200006B070BD25
:104F80000A000023A968286801F010F802002879B7
:104F9000042E03D1E96801F07FFCEFE73300E968F4
:104FA00001F0B6FD0348E9E71000E7E7A4B302000B
:104FB000C90C030018A2020037B50C001100002232
:104FC0001D0000920123200000F0A0FD002C04D160
:104FD00021000120FFF740FE3EBD2968CB0705D424
:104FE0008B0713D10B4B0A689A420FD1080000F0CF
:104FF00005FF010005000120FFF72EFE04002A0036
:105000000021C0681BF0B6FF2000E5E70120FFF794
:10501000E1FEE1E740BD02000379044AD35C002BC6
:1050200000D183790248DB00C0187047C62D0020EC
:10503000A0A8020010B50400FFF7EEFF2279036874
:105040000249034809F014F909F052F876160300F2
:1050500090DC0200002803D001210379014AD154D9
:105060007047C046C62D002010B5FFF7D5FF034B93
:105070004068C01A431E9841C0B210BD35500000B0
:1050800070B506000C00FFF7C7FF0C4D2B0028334E
:10509000984204D12A001032002394420BD00023FE
:1050A000A04208D0436830009847641B3379044A13
:1050B000E410D4540123180070BDC046A0A802001B
:1050C000C62D0020F7B5CC1CA400070020000E0060
:1050D000019220F0E5FF22000500054B4760866045
:1050E00003600C3A01990C301BF0B2FE2800FEBDA3
:1050F00000A9020030B58DB00500684608F0D2FF67
:10510000011E10D12A1D01201EF080F90122EB683A
:1051100004005B1001335B001343EB6008F0E0FF19
:1051200020000DB030BD0198054A0368934205D0B8
:10513000044A00249342F3D008F0DAFF0024EFE79A
:1051400064DB02000CD90200044B0B6003684B6067
:10515000436808008B600123CB60704724B20200D3
:10516000FF230322DB05CB1810B59343042804D892
:1051700014F0FAFD06030F0416000021080010BD0C
:105180000021181C14F0CEFF0A490028F6D00A4965
:10519000F4E7181C15F042FF012140000143EDE740
:1051A000802109065B18022193431943034BC91858
:1051B000E4E7C046D4A10200CCA102000000808038
:1051C000FF23DB0510B50400C81803239843002310
:1051D00086B00193063300931022613302A905F0D3
:1051E00043F902A920001DF02AFF2E2102A81CF07D
:1051F000D7F800280FD1652102A81CF0D1F80028AB
:1052000009D16E2102A81CF0CBF8002803D1034974
:1052100020001DF014FF06B010BDC0460D41030074
:1052200030B50C001100002285B01D000092012352
:10523000200000F06BFC002C23D02868124B0340A8
:10524000062B06D0032420420ED1104B02689A424E
:105250000AD103A9FCF7A8F90022039900921300D0
:10526000FDF70EFC05B030BD03002340022BF9D042
:1052700000F028FE03000220A3431843044BC0188B
:10528000F0E70448EEE7C046070080FF9CA4020058
:105290000000808002008080F0B5050087B010001B
:1052A000019100F00FFE041C0390681F182800D91C
:1052B000BDE014F059FD0D121F24333E6F81BCBCBC
:1052C000BCBCBC0D121F24333E6F9FA8ADB2B7000B
:1052D0000198211C15F04CF803E0211C019815F0F1
:1052E000E9FC019003230198524A9843013B034390
:1052F0009B187CE0211C019815F0BCFBF1E7002114
:10530000201C14F00FFF002803D04B494B481EF01F
:10531000B9F803A901A81EF044F9E3E70021201C15
:1053200014F000FF0028F0D1211C019815F0B2F90B
:10533000D7E70021201C14F0F5FE0028E5D1211C40
:10534000019818F08BFA0021041C019014F0EAFE79
:10535000002807D0039A0023002A01DA80231B06C5
:105360000193BFE70021201C039E012714F0E0FEFB
:10537000002800D1071C0021301C012514F0D8FEA4
:10538000002800D1051CFFB2EDB2AF42AAD0311CFB
:10539000201C9FE7019D0021281C14F0C3FE00285B
:1053A00005D00021201C14F0C3FE0028ADD1211C23
:1053B000281C18F037FB94E70021201C14F0B2FEE3
:1053C0000028A2D103A901A81EF0EBF803220220B5
:1053D000019B1849934303435B180493039B934336
:1053E00003435B1804A9059300F036FF030018007F
:1053F00007B0F0BD0199201C14F0AEFE104B002840
:10540000F5D1104BF3E70199201C14F091FEF5E75C
:105410000199201C14F086FEF0E70199201C14F07D
:10542000A5FEEBE70199201C14F08CFEE6E70023B3
:10543000DDE7C04600008080F60B0300CCDC0200F4
:10544000D4A10200CCA102000021F0B5070087B072
:1054500081641EF078F9FB693C6ABB637B6AFC637C
:10546000002B05DA3A00062140321170013306E0C4
:10547000002B07D03A00052140321170013B7B62BE
:1054800007B0F0BD002833D0BB6A002B30D1390003
:10549000043340310B703A6BAD4B786BD3185B0023
:1054A0001B5A013C9C42EBD017D9F96A8A4207D3B8
:1054B0000831490020F012FEFB6A78630833FB6272
:1054C0003B6B5A1C3A637A6B5B009C527B6ACDE75C
:1054D000013B3B637B6A013B7B623B6B9C4A9A18B6
:1054E0005200125A9442F3D3CAD002230B70C7E77A
:1054F0003C69631C03D1002240373A70C0E7380092
:105500001EF0C6F80490002800D127E13B0040338C
:1055100005930023059A13703B69752B5AD0622BB3
:1055200007D17B69722B5CD001240B2300220192EE
:1055300008E0722B51D17B69622B52D0049B01246D
:1055400001930A23390040310A78002A4ED10B70AA
:10555000002C07D038001EF0C6F8022C02D138000B
:105560001EF0C1F83B690293222B01D0272302933E
:1055700038001EF0B8F80123029A03933B69934266
:105580000BD113007A69934207D138001EF0ABF8B3
:1055900038001EF0A8F80323039300253E69731C0E
:1055A00000D1CBE0039B012B02D10A2E00D1C5E034
:1055B000039B9D421DD33800290044301DF007F99C
:1055C000012138001EF0BFF838001EF061F80028F5
:1055D000A2D155E701240A23A8E700240A23019455
:1055E000B0E7049B022401930B23ABE79342AFD0B7
:1055F00046E7029BB34209D1380019004430013517
:10560000FBF71EF838001EF06EF8C7E7F1B25C2E0B
:1056100000D08EE038001EF066F8019B3C69002B3C
:1056200005D038005C214430FBF70AF849E0622CD1
:1056300000D1ACE130D84E2C73D01BD8222C4BD0EB
:10564000272C49D000250A2CDCD020003038072830
:10565000E7D8040003257B69303B072B31D8013D97
:10566000002D2ED038001EF03EF83B69E400303BA0
:105670001C19F0E75C2C2FD0612C00D18DE1552C4A
:10568000E3D13B0040331B780B2B35D138005C2134
:105690004430FAF7D5FF1FE0742C00D179E107D828
:1056A0006E2C18D0722C25D0662CCED10C2413E091
:1056B000762C1DD0E5D30225782CC6D10024013DDF
:1056C0001FD20025631C9DD0224B9C4204D901228D
:1056D000059B1A700AE00A243B0040331B780A2B12
:1056E00022D1380021004430FAF7AAFF002589E7CB
:1056F0000B24F1E70D24EFE70825752CDED1043DDE
:10570000DCE738001DF0EFFF3E693000FDF7F6F8EA
:10571000002800D136E130001DF084FC240124185B
:10572000CDE70D48FFF706FAFF2CD0D8E1B20B2BDE
:10573000CDD1380044301DF006F8D7E7039B9D42D9
:1057400000D338E73B00032240331A7033E7C046EA
:10575000FFFFFF7FFFFF1000C91603002000FDF7C9
:10576000B5F8041E386903D15F2801D07F2841D9DC
:105770003D0007233C0040352B704434C1B220006B
:105780001CF0E1FF38001DF0AEFF3869431C1BD14F
:1057900020001CF0C6FF00240600814FA300D95949
:1057A00030001BF06BFE00281DD10D34E4B22C70CC
:1057B000102C00D064E67B4BA8331A680D23002A16
:1057C00000D102332B705BE6FDF780F8002808D18A
:1057D00038695F2805D07F2803D8FDF783F80028B3
:1057E000D6D0397CCBE7002800DA49E60134222CF8
:1057F000D4D145E6FDF776F8002818D13B692E2B69
:1058000010D000250223684C2678002E02D03A6979
:10581000B2425FD138001DF066FF002E63D14037E1
:1058200001226AE67869FDF75DF80028E9D03E00BC
:10583000396940362E290AD1092333703D00443599
:105840002800FAF7FDFE38001DF04DFF25E0082383
:1058500033703029F2D17A6918331343623B162B27
:1058600003D8524CDC4001231C4001231C40E5E7D7
:10587000002C16D1652801D0452812D109236521B5
:1058800033702800FAF7DCFE38001DF02CFF396970
:1058900002220B002B3B9343D2D03869431CE7D143
:1058A000EEE5FDF713F8002805D039692E290BD154
:1058B00009233370C4E73869FDF714F80028F4D1E0
:1058C0003B692E2BF1D0DBE50B00202293434A2BC2
:1058D000B6D1EDE7633E9E43F2B256425641A4195B
:1058E0000135013490E7212E08D13B693D2B96D13B
:1058F00038001DF0F8FE40374122FEE52E2E10D173
:105900003C003B6940342E2B45D17B692E2B42D184
:1059100038001DF0E8FE38001DF0E5FE0C23237072
:10592000AEE52A000134267802213300633B8B4325
:10593000DBB2002B0ED1637839690135994207D16A
:1059400038001DF0D0FE2A00652E03D00234EAE7AD
:10595000632EFBD1164B9B5C3A004032137019004A
:1059600004229143422901D0442B03D1BB6A013365
:10597000BB6285E5432902D0452B00D080E5BB6A98
:10598000013BF5E70122059B04001A70A4E60824F8
:10599000A2E60924A0E64A23C1E707249CE6C04604
:1059A0009CB202007C2E00208816030001204000DB
:1059B0004C17030073B50600194D0C0028001BF0AE
:1059C000C1FB310017481BF037FB17481BF0BAFB2F
:1059D00016481BF0B7FBFF239B00E61821787F29B0
:1059E00001D0B44206D128001BF0ACFB10481BF0DC
:1059F000A9FB73BDA37850290CD80E4A505C0E4AFF
:105A0000525C01936378009303000C481BF014FB75
:105A10000434E3E762780A481BF00EFBF8E7C0465F
:105A200029180300561803005E180300E717030047
:105A300005180300AA890300598903007F18030091
:105A4000A2180300F0B51D008BB007901B4816008C
:105A500008911BF077FB290019481BF0EDFA194853
:105A60001BF070FB18481BF06DFB0024AC4204DBFC
:105A700012481BF067FB0BB0F0BD089B375DA00020
:105A80000799181803788278095D049707689B06C0
:105A90003F037F0E0397C7789B0E09933B09029340
:105AA00000883F07C004400E3F0F01901209009785
:105AB000099B06481BF0C0FA0134D7E729180300F8
:105AC00076170300A3170300D51703000718030078
:105AD00003000F2010B5084003280ED814F044F935
